{
  "contractName": "Bank",
  "abi": [
    {
      "inputs": [
        {
          "internalType": "uint256",
          "name": "amount",
          "type": "uint256"
        }
      ],
      "name": "deposit",
      "outputs": [],
      "stateMutability": "payable",
      "type": "function",
      "payable": true
    },
    {
      "inputs": [],
      "name": "balance",
      "outputs": [
        {
          "internalType": "uint256",
          "name": "",
          "type": "uint256"
        }
      ],
      "stateMutability": "view",
      "type": "function",
      "constant": true
    },
    {
      "inputs": [
        {
          "internalType": "uint256",
          "name": "amount",
          "type": "uint256"
        }
      ],
      "name": "withdraw",
      "outputs": [],
      "stateMutability": "nonpayable",
      "type": "function"
    }
  ],
  "bytecode": "0x608060405234801561001057600080fd5b5061038e806100206000396000f3fe6080604052600436106100345760003560e01c80632e1a7d4d14610039578063b69ef8a814610062578063b6b55f251461008d575b600080fd5b34801561004557600080fd5b50610060600480360381019061005b9190610248565b6100a9565b005b34801561006e57600080fd5b50610077610138565b6040516100849190610284565b60405180910390f35b6100a760048036038101906100a29190610248565b61017e565b005b806000803373ffffffffffffffffffffffffffffffffffffffff1673ffffffffffffffffffffffffffffffffffffffff168152602001908152602001600020546100f391906102ce565b6000803373ffffffffffffffffffffffffffffffffffffffff1673ffffffffffffffffffffffffffffffffffffffff1681526020019081526020016000208190555050565b60008060003373ffffffffffffffffffffffffffffffffffffffff1673ffffffffffffffffffffffffffffffffffffffff16815260200190815260200160002054905090565b806000803373ffffffffffffffffffffffffffffffffffffffff1673ffffffffffffffffffffffffffffffffffffffff168152602001908152602001600020546101c89190610302565b6000803373ffffffffffffffffffffffffffffffffffffffff1673ffffffffffffffffffffffffffffffffffffffff1681526020019081526020016000208190555050565b600080fd5b6000819050919050565b61022581610212565b811461023057600080fd5b50565b6000813590506102428161021c565b92915050565b60006020828403121561025e5761025d61020d565b5b600061026c84828501610233565b91505092915050565b61027e81610212565b82525050565b60006020820190506102996000830184610275565b92915050565b7f4e487b7100000000000000000000000000000000000000000000000000000000600052601160045260246000fd5b60006102d982610212565b91506102e483610212565b9250828210156102f7576102f661029f565b5b828203905092915050565b600061030d82610212565b915061031883610212565b9250827fffffffffffffffffffffffffffffffffffffffffffffffffffffffffffffffff0382111561034d5761034c61029f565b5b82820190509291505056fea26469706673582212201693127529f9b96fd9daefc2ac09027aea138f21eb2c031c36126b97ef2cba3164736f6c634300080b0033",
  "immutableReferences": {},
  "source": "// SPDX-License-Identifier: MIT\npragma solidity >=0.4.22 <0.9.0;\n\n/**\n* 1. Deposit\n* 2. Get balance\n* 3. Send\n*/\ncontract Bank {\n  mapping(address => uint) balances;\n\n  function deposit(uint amount) public payable {\n    balances[msg.sender] = balances[msg.sender] + amount;\n  }\n\n  function balance() public view returns(uint) {\n    return balances[msg.sender];\n  }\n\n  function withdraw(uint amount) public {\n    balances[msg.sender] = balances[msg.sender] - amount;\n  }\n}\n",
  "sourcePath": "/home/janupa/Desktop/Bank-contract/contracts/Bank.sol",
  "compiler": {
    "name": "solc",
    "version": "0.8.11+commit.d7f03943.Emscripten.clang"
  },
  "schemaVersion": "3.4.4",
  "updatedAt": "2022-02-15T08:31:37.592Z",
  "networkType": "ethereum",
  "devdoc": {
    "kind": "dev",
    "methods": {},
    "version": 1
  },
  "userdoc": {
    "kind": "user",
    "methods": {},
    "notice": "1. Deposit 2. Get balance 3. Send",
    "version": 1
  }
}